{
  "contractName": "LinkedList",
  "abi": [
    {
      "constant": true,
      "inputs": [],
      "name": "length",
      "outputs": [
        {
          "name": "",
          "type": "uint256"
        }
      ],
      "payable": false,
      "stateMutability": "view",
      "type": "function"
    },
    {
      "constant": true,
      "inputs": [],
      "name": "head",
      "outputs": [
        {
          "name": "",
          "type": "bytes32"
        }
      ],
      "payable": false,
      "stateMutability": "view",
      "type": "function"
    },
    {
      "constant": true,
      "inputs": [],
      "name": "writtenTotal",
      "outputs": [
        {
          "name": "",
          "type": "uint256"
        }
      ],
      "payable": false,
      "stateMutability": "view",
      "type": "function"
    },
    {
      "constant": true,
      "inputs": [
        {
          "name": "",
          "type": "bytes32"
        }
      ],
      "name": "objects",
      "outputs": [
        {
          "name": "next",
          "type": "bytes32"
        },
        {
          "name": "number",
          "type": "uint256"
        },
        {
          "name": "name",
          "type": "bytes32"
        }
      ],
      "payable": false,
      "stateMutability": "view",
      "type": "function"
    },
    {
      "anonymous": false,
      "inputs": [
        {
          "indexed": false,
          "name": "head",
          "type": "bytes32"
        },
        {
          "indexed": false,
          "name": "number",
          "type": "uint256"
        },
        {
          "indexed": false,
          "name": "name",
          "type": "bytes32"
        },
        {
          "indexed": false,
          "name": "next",
          "type": "bytes32"
        }
      ],
      "name": "AddEntry",
      "type": "event"
    },
    {
      "constant": false,
      "inputs": [
        {
          "name": "_number",
          "type": "uint256"
        },
        {
          "name": "_name",
          "type": "bytes32"
        }
      ],
      "name": "addEntry",
      "outputs": [
        {
          "name": "",
          "type": "bool"
        }
      ],
      "payable": false,
      "stateMutability": "nonpayable",
      "type": "function"
    },
    {
      "constant": true,
      "inputs": [
        {
          "name": "_id",
          "type": "bytes32"
        }
      ],
      "name": "getEntry",
      "outputs": [
        {
          "name": "",
          "type": "bytes32"
        },
        {
          "name": "",
          "type": "uint256"
        },
        {
          "name": "",
          "type": "bytes32"
        }
      ],
      "payable": false,
      "stateMutability": "view",
      "type": "function"
    },
    {
      "constant": true,
      "inputs": [],
      "name": "total",
      "outputs": [
        {
          "name": "",
          "type": "uint256"
        }
      ],
      "payable": false,
      "stateMutability": "view",
      "type": "function"
    },
    {
      "constant": false,
      "inputs": [],
      "name": "setTotal",
      "outputs": [
        {
          "name": "",
          "type": "bool"
        }
      ],
      "payable": false,
      "stateMutability": "nonpayable",
      "type": "function"
    },
    {
      "constant": false,
      "inputs": [],
      "name": "resetTotal",
      "outputs": [
        {
          "name": "",
          "type": "bool"
        }
      ],
      "payable": false,
      "stateMutability": "nonpayable",
      "type": "function"
    }
  ],
  "bytecode": "0x608060405260008055600060015534801561001957600080fd5b506104c5806100296000396000f3fe608060405234801561001057600080fd5b50600436106100935760003560e01c80638f7dcfa3116100665780638f7dcfa3146101465780639a5e4eb414610164578063af9d1864146101b4578063b4b27a56146101d2578063c3fdf0861461022257610093565b80631f7b6d32146100985780632ddbd13a146100b657806375a584b0146100d45780638ce85c4914610124575b600080fd5b6100a0610244565b6040518082815260200191505060405180910390f35b6100be61024a565b6040518082815260200191505060405180910390f35b61010a600480360360408110156100ea57600080fd5b8101908080359060200190929190803590602001909291905050506102a3565b604051808215151515815260200191505060405180910390f35b61012c6103be565b604051808215151515815260200191505060405180910390f35b61014e6103d5565b6040518082815260200191505060405180910390f35b6101906004803603602081101561017a57600080fd5b81019080803590602001909291905050506103db565b60405180848152602001838152602001828152602001935050505060405180910390f35b6101bc610432565b6040518082815260200191505060405180910390f35b6101fe600480360360208110156101e857600080fd5b8101908080359060200190929190505050610438565b60405180848152602001838152602001828152602001935050505060405180910390f35b61022a610462565b604051808215151515815260200191505060405180910390f35b60005481565b600080600254905060008090505b6000801b821461029b5760036000838152602001908152602001600020600101548101905060036000838152602001908152602001600020600001549150610258565b809250505090565b60006102ad610472565b604051806060016040528060025481526020018581526020018481525090506000816020015182604001516000546040516020018084815260200183815260200182815260200193505050506040516020818303038152906040528051906020012090508160036000838152602001908152602001600020600082015181600001556020820151816001015560408201518160020155905050806002819055506001600054016000819055507fc2095a1cad0146936900584bdd875da6303a025d1209e2f449836fe6d6cd59f16002548360200151846040015185600001516040518085815260200184815260200183815260200182815260200194505050505060405180910390a1505092915050565b60006103c861024a565b6001819055506001905090565b60025481565b60008060006003600085815260200190815260200160002060000154600360008681526020019081526020016000206001015460036000878152602001908152602001600020600201549250925092509193909250565b60015481565b60036020528060005260406000206000915090508060000154908060010154908060020154905083565b6000806001819055506001905090565b6040518060600160405280600080191681526020016000815260200160008019168152509056fea165627a7a72305820117a99e062d06cb8c659a69391433382f41e040a226006b50070d7b7d67447970029",
  "source": "pragma solidity >=0.4.21 <0.6.0;\r\n\r\ncontract LinkedList {\r\n    event AddEntry(bytes32 head,uint number,bytes32 name,bytes32 next);\r\n\r\n    uint public length = 0;\r\n    uint public writtenTotal = 0;\r\n\r\n    struct Object {\r\n        bytes32 next;\r\n        uint number;\r\n        bytes32 name;\r\n    }\r\n\r\n    bytes32 public head;\r\n    mapping(bytes32 => Object) public objects;\r\n\r\n\r\nfunction addEntry(uint _number, bytes32 _name) public returns (bool) {\r\n    Object memory object = Object(head,_number,_name);\r\n    bytes32 id = keccak256(abi.encode(object.number,object.name,length));\r\n    objects[id] = object;\r\n    head = id;\r\n    length = length + 1;\r\n    emit AddEntry(head,object.number,object.name,object.next);\r\n}\r\n\r\nfunction getEntry(bytes32 _id) public view returns (bytes32,uint,bytes32){\r\n    return (objects[_id].next,objects[_id].number,objects[_id].name);\r\n}\r\n\r\nfunction total() public view returns (uint) {\r\n    bytes32 current = head;\r\n    uint totalCount = 0;\r\n    while(current != 0){\r\n        totalCount = totalCount + objects[current].number;\r\n        current = objects[current].next;\r\n    }\r\n    return totalCount;\r\n}\r\n\r\nfunction setTotal() public returns (bool) {\r\n    writtenTotal = total();\r\n    return true;\r\n}\r\n\r\nfunction resetTotal() public returns (bool) {\r\n    writtenTotal = 0;\r\n    return true;\r\n}\r\n\r\n\r\n\r\n\r\n\r\n}",
  "sourcePath": "C:/Users/nbn/Desktop/NoobChain/solidityproject/contracts/LinkedList.sol",
  "compiler": {
    "name": "solc",
    "version": "0.5.8+commit.23d335f2.Emscripten.clang"
  },
  "schemaVersion": "3.0.16",
  "updatedAt": "2019-09-27T12:28:51.266Z",
  "devdoc": {
    "methods": {}
  },
  "userdoc": {
    "methods": {}
  }
}