{
  "contractName": "Teller",
  "abi": [
    {
      "constant": true,
      "inputs": [],
      "name": "quorum",
      "outputs": [
        {
          "name": "",
          "type": "uint16"
        }
      ],
      "payable": false,
      "stateMutability": "view",
      "type": "function"
    },
    {
      "constant": true,
      "inputs": [],
      "name": "winningName",
      "outputs": [
        {
          "name": "",
          "type": "bytes32"
        }
      ],
      "payable": false,
      "stateMutability": "view",
      "type": "function"
    },
    {
      "constant": true,
      "inputs": [],
      "name": "currentPointer",
      "outputs": [
        {
          "name": "",
          "type": "bytes32"
        }
      ],
      "payable": false,
      "stateMutability": "view",
      "type": "function"
    },
    {
      "constant": true,
      "inputs": [
        {
          "name": "",
          "type": "bytes32"
        }
      ],
      "name": "totals",
      "outputs": [
        {
          "name": "",
          "type": "uint256"
        }
      ],
      "payable": false,
      "stateMutability": "view",
      "type": "function"
    },
    {
      "constant": true,
      "inputs": [],
      "name": "state",
      "outputs": [
        {
          "name": "",
          "type": "uint8"
        }
      ],
      "payable": false,
      "stateMutability": "view",
      "type": "function"
    },
    {
      "constant": true,
      "inputs": [],
      "name": "winningVotes",
      "outputs": [
        {
          "name": "",
          "type": "uint256"
        }
      ],
      "payable": false,
      "stateMutability": "view",
      "type": "function"
    },
    {
      "constant": true,
      "inputs": [],
      "name": "counted",
      "outputs": [
        {
          "name": "",
          "type": "uint256"
        }
      ],
      "payable": false,
      "stateMutability": "view",
      "type": "function"
    },
    {
      "constant": false,
      "inputs": [
        {
          "name": "_linkedListAddress",
          "type": "address"
        }
      ],
      "name": "countVotes",
      "outputs": [
        {
          "name": "",
          "type": "bool"
        }
      ],
      "payable": false,
      "stateMutability": "nonpayable",
      "type": "function"
    }
  ],
  "bytecode": "0x60806040526101906000806101000a81548161ffff021916908361ffff1602179055506000600360006101000a81548160ff0219169083600281111561004157fe5b0217905550600060065534801561005757600080fd5b50610695806100676000396000f3fe608060405234801561001057600080fd5b50600436106100885760003560e01c8063a66060141161005b578063a66060141461014b578063c19d93fb1461018d578063c8461b39146101b9578063f937f910146101d757610088565b80631703a0181461008d5780631f9ff6d7146100b35780634e9e7e79146100d15780635dc43899146100ef575b600080fd5b6100956101f5565b604051808261ffff1661ffff16815260200191505060405180910390f35b6100bb610208565b6040518082815260200191505060405180910390f35b6100d961020e565b6040518082815260200191505060405180910390f35b6101316004803603602081101561010557600080fd5b81019080803573ffffffffffffffffffffffffffffffffffffffff169060200190929190505050610214565b604051808215151515815260200191505060405180910390f35b6101776004803603602081101561016157600080fd5b8101908080359060200190929190505050610632565b6040518082815260200191505060405180910390f35b61019561064a565b604051808260028111156101a557fe5b60ff16815260200191505060405180910390f35b6101c161065d565b6040518082815260200191505060405180910390f35b6101df610663565b6040518082815260200191505060405180910390f35b6000809054906101000a900461ffff1681565b60015481565b60045481565b6000808290506000600281111561022757fe5b600360009054906101000a900460ff16600281111561024257fe5b141561037f576000809054906101000a900461ffff1661ffff168173ffffffffffffffffffffffffffffffffffffffff16632ddbd13a6040518163ffffffff1660e01b815260040160206040518083038186803b1580156102a257600080fd5b505afa1580156102b6573d6000803e3d6000fd5b505050506040513d60208110156102cc57600080fd5b81019080805190602001909291905050501015610351576040517f08c379a00000000000000000000000000000000000000000000000000000000081526004018080602001828103825260108152602001807f6c657373207468616e2071756f72756d0000000000000000000000000000000081525060200191505060405180910390fd5b6001600360006101000a81548160ff0219169083600281111561037057fe5b0217905550600191505061062d565b6001600281111561038c57fe5b600360009054906101000a900460ff1660028111156103a757fe5b14156105e4576000801b6004541415610442578073ffffffffffffffffffffffffffffffffffffffff16638f7dcfa36040518163ffffffff1660e01b815260040160206040518083038186803b15801561040057600080fd5b505afa158015610414573d6000803e3d6000fd5b505050506040513d602081101561042a57600080fd5b81019080805190602001909291905050506004819055505b6000600490505b6000818060019003925060ff1611801561046857506000801b60045414155b1561059d576000808373ffffffffffffffffffffffffffffffffffffffff16639a5e4eb46004546040518263ffffffff1660e01b81526004018082815260200191505060606040518083038186803b1580156104c357600080fd5b505afa1580156104d7573d6000803e3d6000fd5b505050506040513d60608110156104ed57600080fd5b8101908080519060200190929190805190602001909291908051906020019092919050505060046000829550839650849190505550505081600560008381526020019081526020016000206000828254019250508190555060025460056000838152602001908152602001600020541115610584576005600082815260200190815260200160002054600281905550806001819055505b6006600081548092919060010191905055505050610449565b6000801b60045414156105d9576002600360006101000a81548160ff021916908360028111156105c957fe5b021790555060019250505061062d565b60009250505061062d565b6040517f08c379a0000000000000000000000000000000000000000000000000000000008152600401808060200182810382526000815260200160200191505060405180910390fd5b919050565b60056020528060005260406000206000915090505481565b600360009054906101000a900460ff1681565b60025481565b6006548156fea165627a7a723058203c8c19cc25e3f6ed1cf9a164e5e270927bdf51f76f9e96d9bbe193452df22b780029",
  "source": "pragma solidity >=0.4.21 <0.6.0;\r\n\r\ncontract Teller {\r\n    uint16 public quorum=400;\r\n    bytes32 public winningName;\r\n    uint public winningVotes;\r\n\r\n    enum States{\r\n        WaitingForQuorum,\r\n        CountingVotes,\r\n        ElectionFinished\r\n    }\r\n\r\n    States public state = States.WaitingForQuorum;\r\n\r\n    bytes32 public currentPointer;\r\n\r\n    mapping (bytes32 => uint) public totals;\r\n    uint public counted=0;\r\n\r\n    function countVotes(address _linkedListAddress) public returns (bool) {\r\n        LinkedList linkedList = LinkedList(_linkedListAddress);\r\n        if(state == States.WaitingForQuorum){\r\n            require(linkedList.total() >= quorum,'less than quorum');\r\n            state = States.CountingVotes;\r\n            return true;\r\n        }\r\n        else if(state == States.CountingVotes){\r\n            if(currentPointer == 0){\r\n                currentPointer = linkedList.head();\r\n            }\r\n            uint8 limitPerTurn = 4;\r\n            while(limitPerTurn-- > 0 && currentPointer!=0){\r\n                uint thisNumber;\r\n                bytes32 thisName;\r\n                (currentPointer, thisNumber, thisName) = linkedList.getEntry(currentPointer);\r\n                totals[thisName] += thisNumber;\r\n\r\n                if(totals[thisName]>winningVotes){\r\n                    winningVotes = totals[thisName];\r\n                    winningName = thisName;\r\n                }\r\n                counted++;\r\n            }\r\n            if(currentPointer==0){\r\n                state = States.ElectionFinished;\r\n                return true;\r\n            }\r\n            else{\r\n                return false;\r\n            }\r\n        } else{\r\n            revert('');\r\n        }\r\n    }\r\n}\r\n\r\ncontract LinkedList {\r\n  struct Object{ bytes32 next;uint number;bytes32 name;}\r\n  bytes32 public head;\r\n  mapping (bytes32 => Object) public objects;\r\n  function total() public view returns (uint) {}\r\n  function getEntry(bytes32 _id) public view returns (bytes32,uint,bytes32){}\r\n  }",
  "sourcePath": "C:/Users/nbn/Desktop/NoobChain/solidityproject/contracts/Teller.sol",
  "compiler": {
    "name": "solc",
    "version": "0.5.8+commit.23d335f2.Emscripten.clang"
  },
  "schemaVersion": "3.0.16",
  "updatedAt": "2019-09-27T12:28:40.241Z",
  "devdoc": {
    "methods": {}
  },
  "userdoc": {
    "methods": {}
  }
}